{"contracts/FlashArb.sol":{"FlashArb":{"abi":[{"inputs":[{"internalType":"address","name":"_aavePool","type":"address"},{"internalType":"address","name":"_weth","type":"address"},{"internalType":"address","name":"initialOwner","type":"address"}],"stateMutability":"nonpayable","type":"constructor"},{"inputs":[{"internalType":"address","name":"owner","type":"address"}],"name":"OwnableInvalidOwner","type":"error"},{"inputs":[{"internalType":"address","name":"account","type":"address"}],"name":"OwnableUnauthorizedAccount","type":"error"},{"inputs":[],"name":"ReentrancyGuardReentrantCall","type":"error"},{"inputs":[{"internalType":"address","name":"token","type":"address"}],"name":"SafeERC20FailedOperation","type":"error"},{"anonymous":false,"inputs":[{"indexed":true,"internalType":"address","name":"asset","type":"address"},{"indexed":false,"internalType":"uint256","name":"amountIn","type":"uint256"},{"indexed":false,"internalType":"uint256","name":"profit","type":"uint256"},{"indexed":false,"internalType":"uint256","name":"premium","type":"uint256"}],"name":"ExecutedArb","type":"event"},{"anonymous":false,"inputs":[{"indexed":true,"internalType":"address","name":"previousOwner","type":"address"},{"indexed":true,"internalType":"address","name":"newOwner","type":"address"}],"name":"OwnershipTransferred","type":"event"},{"inputs":[],"name":"aavePool","outputs":[{"internalType":"address","name":"","type":"address"}],"stateMutability":"view","type":"function"},{"inputs":[{"internalType":"address","name":"asset","type":"address"},{"internalType":"uint256","name":"amount","type":"uint256"},{"internalType":"uint256","name":"premium","type":"uint256"},{"internalType":"address","name":"","type":"address"},{"internalType":"bytes","name":"params","type":"bytes"}],"name":"executeOperation","outputs":[{"internalType":"bool","name":"","type":"bool"}],"stateMutability":"nonpayable","type":"function"},{"inputs":[{"internalType":"address","name":"asset","type":"address"},{"internalType":"uint256","name":"amount","type":"uint256"},{"components":[{"internalType":"address","name":"routerA","type":"address"},{"internalType":"address[]","name":"pathA","type":"address[]"},{"internalType":"uint256","name":"minOutA","type":"uint256"},{"internalType":"address","name":"routerB","type":"address"},{"internalType":"bool","name":"isV3","type":"bool"},{"internalType":"uint24","name":"v3Fee","type":"uint24"},{"internalType":"address","name":"tokenOutB","type":"address"},{"internalType":"uint256","name":"minOutB","type":"uint256"},{"internalType":"uint256","name":"minProfit","type":"uint256"},{"internalType":"uint256","name":"deadline","type":"uint256"}],"internalType":"struct FlashArb.ArbParams","name":"arb","type":"tuple"}],"name":"initiateFlashArb","outputs":[],"stateMutability":"nonpayable","type":"function"},{"inputs":[],"name":"owner","outputs":[{"internalType":"address","name":"","type":"address"}],"stateMutability":"view","type":"function"},{"inputs":[],"name":"renounceOwnership","outputs":[],"stateMutability":"nonpayable","type":"function"},{"inputs":[{"internalType":"address","name":"token","type":"address"},{"internalType":"uint256","name":"amount","type":"uint256"},{"internalType":"address","name":"to","type":"address"}],"name":"rescue","outputs":[],"stateMutability":"nonpayable","type":"function"},{"inputs":[{"internalType":"address","name":"newOwner","type":"address"}],"name":"transferOwnership","outputs":[],"stateMutability":"nonpayable","type":"function"},{"inputs":[],"name":"weth","outputs":[{"internalType":"address","name":"","type":"address"}],"stateMutability":"view","type":"function"}],"evm":{"bytecode":{"linkReferences":{},"object":"60c0346200016857601f6200142c38819003918201601f19168301916001600160401b038311848410176200016d5780849260609460405283398101031262000168576200004d8162000183565b60406200005d6020840162000183565b926001600160a01b0391829162000075910162000183565b169081156200014f57600080546001600160a01b03198116841782556040519391908316907f8be0079c531659141344cd1fd0a4f28419497f9722a3daafe3b4186f6b6457e09080a3600180558083161515908162000142575b501562000114575060805260a0526040516112939081620001998239608051818181610121015281816102d7015281816106600152610a4d015260a051816105c60152f35b62461bcd60e51b81526020600482015260096024820152683d32b9379030b2323960b91b6044820152606490fd5b90508316151538620000cf565b604051631e4fbdf760e01b815260006004820152602490fd5b600080fd5b634e487b7160e01b600052604160045260246000fd5b51906001600160a01b0382168203620001685756fe608080604052600436101561001357600080fd5b600090813560e01c9081631b11d0ff146105f5575080633fc8cef3146105b05780634879a28f1461021e578063715018a6146101c45780638671d23b146101775780638da5cb5b14610150578063a03e4bc31461010b5763f2fde38b1461007957600080fd5b3461010857602036600319011261010857610092610e98565b61009a6111c9565b6001600160a01b039081169081156100ef57600054826bffffffffffffffffffffffff60a01b821617600055167f8be0079c531659141344cd1fd0a4f28419497f9722a3daafe3b4186f6b6457e0600080a380f35b604051631e4fbdf760e01b815260048101849052602490fd5b80fd5b50346101085780600319360112610108576040517f00000000000000000000000000000000000000000000000000000000000000006001600160a01b03168152602090f35b5034610108578060031936011261010857546040516001600160a01b039091168152602090f35b503461010857606036600319011261010857610191610e98565b6001600160a01b039060443582811681036101bf576101bc926101b26111c9565b602435921661118b565b80f35b600080fd5b50346101085780600319360112610108576101dd6111c9565b600080546001600160a01b0319811682556001600160a01b03167f8be0079c531659141344cd1fd0a4f28419497f9722a3daafe3b4186f6b6457e08280a380f35b5034610108576003196060368201126104eb57610239610e98565b6024906044928335936001600160401b03928386116105ac57856004019286360361014080928201126105a85761026e6111c9565b60019460026001541461059657600260015561012489013580421161056b57888a0193600261029d868561105f565b90501061053a576102ae858461105f565b15610527576001600160a01b0390358181169c9197908d9003610523578716809c036104ef57867f000000000000000000000000000000000000000000000000000000000000000016988d6040519660209889808a01528a6103146101808b0199610eae565b1660408a01523590602219018112156104eb578301908d60048301359201968d83116104eb578260051b360388136104eb57918086959492938a99989760608b0152526101a0880196925b8a8282106104bf575050505050808961010492013560808701528861038660648301610eae565b1660a087015261039860848201610f10565b151560c087015262ffffff6103af60a48301610f1d565b1660e087015260c4986103c460c48301610eae565b1661010087015260e481013561012087015201359084015261016083015203936103f6601f1995868101845283610ec2565b853b156104bb5797939189959391604051998a966310ac2ddf60e21b88523060048901528a88015289359087015260a060648701528051928360a4880152875b8481106104a2575050505060c4848093601f848985819786010152856084850152011681010301925af1801561049757610473575b836001805580f35b8211610485575060405238808061046b565b634e487b7160e01b8352604160045282fd5b6040513d86823e3d90fd5b8281018401518c82018301528c98508b97508301610436565b8980fd5b84995083959697988d6104d58394969597610eae565b168152019801910191889796959493919261035f565b5080fd5b60405162461bcd60e51b815260206004820152600e818d01526d0e0c2e8d08240dad2e6dac2e8c6d60931b818a0152606490fd5b8d80fd5b634e487b7160e01b8d5260326004528a8dfd5b60405162461bcd60e51b815260206004820152600b818c01526a1c185d1a10481cda1bdc9d60aa1b81890152606490fd5b60405162461bcd60e51b8152602060048201526005818b0152647374616c6560d81b81880152606490fd5b604051633ee5aeb560e01b8152600490fd5b8880fd5b8680fd5b50346101085780600319360112610108576040517f00000000000000000000000000000000000000000000000000000000000000006001600160a01b03168152602090f35b82346101085760a03660031901126101085761060f610e98565b6064356001600160a01b038116036104eb57608435916001600160401b03831161010857366023840112156101085782600401356001600160401b0381116104eb578301933660248601116104eb577f00000000000000000000000000000000000000000000000000000000000000006001600160a01b03163303610e6a57506020838503126101085760248301356001600160401b0381116104eb576101409384828201870312610e66576040519485018581106001600160401b03821117610e52576040526106e4602483830101610eae565b8552604482820101356001600160401b038111610e4e576024870160438285850101011215610e4e5760248184840101013561071f81610ef9565b9161072d6040519384610ec2565b818352602460208401990160448360051b8388880101010111610e4a576044818686010101985b60448360051b838888010101018a10610e2c5750505060208601528181016064810135604087015261014492919061078e90608401610eae565b60608701526107a160a483830101610f10565b60808701526107b460c483830101610f1d565b60a08701526107c760e483830101610eae565b60c08701520161010481013560e0860152610124810135610100860152013561012084018190524211610dfd57825161081190602435906001600160a01b03908116908516611094565b6108558160018060a01b038551166040860151906020870151918361012089015193604051968795869485936338ed173960e01b8552309160243560048701610fa6565b03925af1908115610b68578291610de3575b50805180600019810111610d855790610884916000190190611012565b51608084015115610c6157602084015180519081600019810111610c4d576108d79183916001600160a01b03916108c19160001990910190611012565b5160608801516001600160a01b03169116611094565b60018060a01b0360608501511690602085015180519081600019810111610c39576001600160a01b03916109119160001990910190611012565b51169060018060a01b0360c0870151169062ffffff60a0880151166101208801519060e08901519360405195866101008101106001600160401b0361010089011117610c255761010087016040908152908752602080880192835281880193845230606089019081526080890195865260a0890196875260c0890197885260e089018b8152925163414bf38960e01b815298516001600160a01b0390811660048b01529351841660248a0152935162ffffff16604489015292518216606488015292516084870152925160a4860152925160c4850152511660e48301529091829061010490829086905af1908115610b68578291610bf3575b50925b60c08101516001600160a01b03848116911603610bb857610a41610100610a3860443560243561103c565b9201518261103c565b8410610b8757610a7b817f00000000000000000000000000000000000000000000000000000000000000006001600160a01b03861661118b565b8303928311610b73576040516370a0823160e01b81523060048201526020816024816001600160a01b0387165afa908115610b68578291610b35575b5091606091837fe1980d8c05617ebe0331bab77b170af11f37d477bbbc3e732a7477cf887932cd94610b14575b50506040805160243581526020810195909552604435908501526001600160a01b031692a2602060405160018152f35b9054610b2e91906001600160a01b0390811690841661118b565b8480610ae4565b90506020813d602011610b60575b81610b5060209383610ec2565b810103126104eb57516060610ab7565b3d9150610b43565b6040513d84823e3d90fd5b634e487b7160e01b81526011600452602490fd5b60405162461bcd60e51b81526020600482015260096024820152681b9bc81c1c9bd99a5d60ba1b6044820152606490fd5b60405162461bcd60e51b8152602060048201526013602482015272199a5b985b081b5d5cdd08189948185cdcd95d606a1b6044820152606490fd5b90506020813d602011610c1d575b81610c0e60209383610ec2565b810103126104eb575184610a0a565b3d9150610c01565b634e487b7160e01b89526041600452602489fd5b634e487b7160e01b85526011600452602485fd5b634e487b7160e01b84526011600452602484fd5b602084015180519081600019810111610c4d57610c939183916001600160a01b03916108c19160001990910190611012565b604051908160608101106001600160401b03606084011117610dcf5760608201604052600282526040366020840137602085015180516000198101908111610c39576001600160a01b0391610ce89190611012565b5116825115610dbb57602083015260018060a01b0360c086015116825160011015610dbb57908391604084015260018060a01b0360608701511660e0870151938361012089015195610d52604051978896879586946338ed173960e01b8652309260048701610fa6565b03925af1908115610b68578291610d99575b508051600019810191908211610d855790610d7e91611012565b5192610a0d565b634e487b7160e01b83526011600452602483fd5b610db591503d8084833e610dad8183610ec2565b810190610f2d565b84610d64565b634e487b7160e01b84526032600452602484fd5b634e487b7160e01b83526041600452602483fd5b610df791503d8084833e610dad8183610ec2565b84610867565b60405162461bcd60e51b8152602060048201526007602482015266195e1c1a5c995960ca1b6044820152606490fd5b90602080604493610e3c8d610eae565b8152019a0199909150610754565b8580fd5b8380fd5b634e487b7160e01b84526041600452602484fd5b8280fd5b62461bcd60e51b81526020600482015260096024820152681bdb9b1e481c1bdbdb60ba1b6044820152606490fd5b600435906001600160a01b03821682036101bf57565b35906001600160a01b03821682036101bf57565b90601f801991011681019081106001600160401b03821117610ee357604052565b634e487b7160e01b600052604160045260246000fd5b6001600160401b038111610ee35760051b60200190565b359081151582036101bf57565b359062ffffff821682036101bf57565b60209081818403126101bf578051906001600160401b0382116101bf57019180601f840112156101bf578251610f6281610ef9565b93610f706040519586610ec2565b818552838086019260051b8201019283116101bf578301905b828210610f97575050505090565b81518152908301908301610f89565b9291909594939560a08401908452602091602085015260a060408501528251809152602060c0850193019160005b828110610ff55750505050906080919460018060a01b031660608201520152565b83516001600160a01b031685529381019392810192600101610fd4565b80518210156110265760209160051b010190565b634e487b7160e01b600052603260045260246000fd5b9190820180921161104957565b634e487b7160e01b600052601160045260246000fd5b903590601e19813603018212156101bf57018035906001600160401b0382116101bf57602001918160051b360383136101bf57565b60405163095ea7b360e01b602082018181526001600160a01b0385166024840152604480840196909652948252949390926110d0606485610ec2565b60206000809386519082875af182513d82611166575b5050156110f6575b505050509050565b60405160208101969096526001600160a01b031660248601526044808601829052855260808501906001600160401b038211868310176111525750611148939461114391604052826111f5565b6111f5565b80388080806110ee565b634e487b7160e01b81526041600452602490fd5b90915061118357506001600160a01b0383163b15155b38806110e6565b60011461117c565b60405163a9059cbb60e01b60208201526001600160a01b039290921660248301526044808301939093529181526111c791611143606483610ec2565b565b6000546001600160a01b031633036111dd57565b60405163118cdaa760e01b8152336004820152602490fd5b906000602091828151910182855af115611251576000513d61124857506001600160a01b0381163b155b6112265750565b604051635274afe760e01b81526001600160a01b039091166004820152602490fd5b6001141561121f565b6040513d6000823e3d90fdfea2646970667358221220a3cb451a3fe665e94aa4e5aeb805f30ed983d4baa9b596d74e953a2db605150e64736f6c63430008180033","opcodes":"PUSH1 0xC0 CALLVALUE PUSH3 0x168 JUMPI PUSH1 0x1F PUSH3 0x142C CODESIZE DUP2 SWAP1 SUB SWAP2 DUP3 ADD PUSH1 0x1F NOT AND DUP4 ADD SWAP2 PUSH1 0x1 PUSH1 0x1 PUSH1 0x40 SHL SUB DUP4 GT DUP5 DUP5 LT OR PUSH3 0x16D JUMPI DUP1 DUP5 SWAP3 PUSH1 0x60 SWAP5 PUSH1 0x40 MSTORE DUP4 CODECOPY DUP2 ADD SUB SLT PUSH3 0x168 JUMPI PUSH3 0x4D DUP2 PUSH3 0x183 JUMP JUMPDEST PUSH1 0x40 PUSH3 0x5D PUSH1 0x20 DUP5 ADD PUSH3 0x183 JUMP JUMPDEST SWAP3 PUSH1 0x1 PUSH1 0x1 PUSH1 0xA0 SHL SUB SWAP2 DUP3 SWAP2 PUSH3 0x75 SWAP2 ADD PUSH3 0x183 JUMP JUMPDEST AND SWAP1 DUP2 ISZERO PUSH3 0x14F JUMPI PUSH1 0x0 DUP1 SLOAD PUSH1 0x1 PUSH1 0x1 PUSH1 0xA0 SHL SUB NOT DUP2 AND DUP5 OR DUP3 SSTORE PUSH1 0x40 MLOAD SWAP4 SWAP2 SWAP1 DUP4 AND SWAP1 PUSH32 0x8BE0079C531659141344CD1FD0A4F28419497F9722A3DAAFE3B4186F6B6457E0 SWAP1 DUP1 LOG3 PUSH1 0x1 DUP1 SSTORE DUP1 DUP4 AND ISZERO ISZERO SWAP1 DUP2 PUSH3 0x142 JUMPI JUMPDEST POP ISZERO PUSH3 0x114 JUMPI POP PUSH1 0x80 MSTORE PUSH1 0xA0 MSTORE PUSH1 0x40 MLOAD PUSH2 0x1293 SWAP1 DUP2 PUSH3 0x199 DUP3 CODECOPY PUSH1 0x80 MLOAD DUP2 DUP2 DUP2 PUSH2 0x121 ADD MSTORE DUP2 DUP2 PUSH2 0x2D7 ADD MSTORE DUP2 DUP2 PUSH2 0x660 ADD MSTORE PUSH2 0xA4D ADD MSTORE PUSH1 0xA0 MLOAD DUP2 PUSH2 0x5C6 ADD MSTORE RETURN JUMPDEST PUSH3 0x461BCD PUSH1 0xE5 SHL DUP2 MSTORE PUSH1 0x20 PUSH1 0x4 DUP3 ADD MSTORE PUSH1 0x9 PUSH1 0x24 DUP3 ADD MSTORE PUSH9 0x3D32B9379030B23239 PUSH1 0xB9 SHL PUSH1 0x44 DUP3 ADD MSTORE PUSH1 0x64 SWAP1 REVERT JUMPDEST SWAP1 POP DUP4 AND ISZERO ISZERO CODESIZE PUSH3 0xCF JUMP JUMPDEST PUSH1 0x40 MLOAD PUSH4 0x1E4FBDF7 PUSH1 0xE0 SHL DUP2 MSTORE PUSH1 0x0 PUSH1 0x4 DUP3 ADD MSTORE PUSH1 0x24 SWAP1 REVERT JUMPDEST PUSH1 0x0 DUP1 REVERT JUMPDEST PUSH4 0x4E487B71 PUSH1 0xE0 SHL PUSH1 0x0 MSTORE PUSH1 0x41 PUSH1 0x4 MSTORE PUSH1 0x24 PUSH1 0x0 REVERT JUMPDEST MLOAD SWAP1 PUSH1 0x1 PUSH1 0x1 PUSH1 0xA0 SHL SUB DUP3 AND DUP3 SUB PUSH3 0x168 JUMPI JUMP INVALID PUSH1 0x80 DUP1 PUSH1 0x40 MSTORE PUSH1 0x4 CALLDATASIZE LT ISZERO PUSH2 0x13 JUMPI PUSH1 0x0 DUP1 REVERT JUMPDEST PUSH1 0x0 SWAP1 DUP2 CALLDATALOAD PUSH1 0xE0 SHR SWAP1 DUP2 PUSH4 0x1B11D0FF EQ PUSH2 0x5F5 JUMPI POP DUP1 PUSH4 0x3FC8CEF3 EQ PUSH2 0x5B0 JUMPI DUP1 PUSH4 0x4879A28F EQ PUSH2 0x21E JUMPI DUP1 PUSH4 0x715018A6 EQ PUSH2 0x1C4 JUMPI DUP1 PUSH4 0x8671D23B EQ PUSH2 0x177 JUMPI DUP1 PUSH4 0x8DA5CB5B EQ PUSH2 0x150 JUMPI DUP1 PUSH4 0xA03E4BC3 EQ PUSH2 0x10B JUMPI PUSH4 0xF2FDE38B EQ PUSH2 0x79 JUMPI PUSH1 0x0 DUP1 REVERT JUMPDEST CALLVALUE PUSH2 0x108 JUMPI PUSH1 0x20 CALLDATASIZE PUSH1 0x3 NOT ADD SLT PUSH2 0x108 JUMPI PUSH2 0x92 PUSH2 0xE98 JUMP JUMPDEST PUSH2 0x9A PUSH2 0x11C9 JUMP JUMPDEST PUSH1 0x1 PUSH1 0x1 PUSH1 0xA0 SHL SUB SWAP1 DUP2 AND SWAP1 DUP2 ISZERO PUSH2 0xEF JUMPI PUSH1 0x0 SLOAD DUP3 PUSH12 0xFFFFFFFFFFFFFFFFFFFFFFFF PUSH1 0xA0 SHL DUP3 AND OR PUSH1 0x0 SSTORE AND PUSH32 0x8BE0079C531659141344CD1FD0A4F28419497F9722A3DAAFE3B4186F6B6457E0 PUSH1 0x0 DUP1 LOG3 DUP1 RETURN JUMPDEST PUSH1 0x40 MLOAD PUSH4 0x1E4FBDF7 PUSH1 0xE0 SHL DUP2 MSTORE PUSH1 0x4 DUP2 ADD DUP5 SWAP1 MSTORE PUSH1 0x24 SWAP1 REVERT JUMPDEST DUP1 REVERT JUMPDEST POP CALLVALUE PUSH2 0x108 JUMPI DUP1 PUSH1 0x3 NOT CALLDATASIZE ADD SLT PUSH2 0x108 JUMPI PUSH1 0x40 MLOAD PUSH32 0x0 PUSH1 0x1 PUSH1 0x1 PUSH1 0xA0 SHL SUB AND DUP2 MSTORE PUSH1 0x20 SWAP1 RETURN JUMPDEST POP CALLVALUE PUSH2 0x108 JUMPI DUP1 PUSH1 0x3 NOT CALLDATASIZE ADD SLT PUSH2 0x108 JUMPI SLOAD PUSH1 0x40 MLOAD PUSH1 0x1 PUSH1 0x1 PUSH1 0xA0 SHL SUB SWAP1 SWAP2 AND DUP2 MSTORE PUSH1 0x20 SWAP1 RETURN JUMPDEST POP CALLVALUE PUSH2 0x108 JUMPI PUSH1 0x60 CALLDATASIZE PUSH1 0x3 NOT ADD SLT PUSH2 0x108 JUMPI PUSH2 0x191 PUSH2 0xE98 JUMP JUMPDEST PUSH1 0x1 PUSH1 0x1 PUSH1 0xA0 SHL SUB SWAP1 PUSH1 0x44 CALLDATALOAD DUP3 DUP2 AND DUP2 SUB PUSH2 0x1BF JUMPI PUSH2 0x1BC SWAP3 PUSH2 0x1B2 PUSH2 0x11C9 JUMP JUMPDEST PUSH1 0x24 CALLDATALOAD SWAP3 AND PUSH2 0x118B JUMP JUMPDEST DUP1 RETURN JUMPDEST PUSH1 0x0 DUP1 REVERT JUMPDEST POP CALLVALUE PUSH2 0x108 JUMPI DUP1 PUSH1 0x3 NOT CALLDATASIZE ADD SLT PUSH2 0x108 JUMPI PUSH2 0x1DD PUSH2 0x11C9 JUMP JUMPDEST PUSH1 0x0 DUP1 SLOAD PUSH1 0x1 PUSH1 0x1 PUSH1 0xA0 SHL SUB NOT DUP2 AND DUP3 SSTORE PUSH1 0x1 PUSH1 0x1 PUSH1 0xA0 SHL SUB AND PUSH32 0x8BE0079C531659141344CD1FD0A4F28419497F9722A3DAAFE3B4186F6B6457E0 DUP3 DUP1 LOG3 DUP1 RETURN JUMPDEST POP CALLVALUE PUSH2 0x108 JUMPI PUSH1 0x3 NOT PUSH1 0x60 CALLDATASIZE DUP3 ADD SLT PUSH2 0x4EB JUMPI PUSH2 0x239 PUSH2 0xE98 JUMP JUMPDEST PUSH1 0x24 SWAP1 PUSH1 0x44 SWAP3 DUP4 CALLDATALOAD SWAP4 PUSH1 0x1 PUSH1 0x1 PUSH1 0x40 SHL SUB SWAP3 DUP4 DUP7 GT PUSH2 0x5AC JUMPI DUP6 PUSH1 0x4 ADD SWAP3 DUP7 CALLDATASIZE SUB PUSH2 0x140 DUP1 SWAP3 DUP3 ADD SLT PUSH2 0x5A8 JUMPI PUSH2 0x26E PUSH2 0x11C9 JUMP JUMPDEST PUSH1 0x1 SWAP5 PUSH1 0x2 PUSH1 0x1 SLOAD EQ PUSH2 0x596 JUMPI PUSH1 0x2 PUSH1 0x1 SSTORE PUSH2 0x124 DUP10 ADD CALLDATALOAD DUP1 TIMESTAMP GT PUSH2 0x56B JUMPI DUP9 DUP11 ADD SWAP4 PUSH1 0x2 PUSH2 0x29D DUP7 DUP6 PUSH2 0x105F JUMP JUMPDEST SWAP1 POP LT PUSH2 0x53A JUMPI PUSH2 0x2AE DUP6 DUP5 PUSH2 0x105F JUMP JUMPDEST ISZERO PUSH2 0x527 JUMPI PUSH1 0x1 PUSH1 0x1 PUSH1 0xA0 SHL SUB SWAP1 CALLDATALOAD DUP2 DUP2 AND SWAP13 SWAP2 SWAP8 SWAP1 DUP14 SWAP1 SUB PUSH2 0x523 JUMPI DUP8 AND DUP1 SWAP13 SUB PUSH2 0x4EF JUMPI DUP7 PUSH32 0x0 AND SWAP9 DUP14 PUSH1 0x40 MLOAD SWAP7 PUSH1 0x20 SWAP9 DUP10 DUP1 DUP11 ADD MSTORE DUP11 PUSH2 0x314 PUSH2 0x180 DUP12 ADD SWAP10 PUSH2 0xEAE JUMP JUMPDEST AND PUSH1 0x40 DUP11 ADD MSTORE CALLDATALOAD SWAP1 PUSH1 0x22 NOT ADD DUP2 SLT ISZERO PUSH2 0x4EB JUMPI DUP4 ADD SWAP1 DUP14 PUSH1 0x4 DUP4 ADD CALLDATALOAD SWAP3 ADD SWAP7 DUP14 DUP4 GT PUSH2 0x4EB JUMPI DUP3 PUSH1 0x5 SHL CALLDATASIZE SUB DUP9 SGT PUSH2 0x4EB JUMPI SWAP2 DUP1 DUP7 SWAP6 SWAP5 SWAP3 SWAP4 DUP11 SWAP10 SWAP9 SWAP8 PUSH1 0x60 DUP12 ADD MSTORE MSTORE PUSH2 0x1A0 DUP9 ADD SWAP7 SWAP3 JUMPDEST DUP11 DUP3 DUP3 LT PUSH2 0x4BF JUMPI POP POP POP POP POP DUP1 DUP10 PUSH2 0x104 SWAP3 ADD CALLDATALOAD PUSH1 0x80 DUP8 ADD MSTORE DUP9 PUSH2 0x386 PUSH1 0x64 DUP4 ADD PUSH2 0xEAE JUMP JUMPDEST AND PUSH1 0xA0 DUP8 ADD MSTORE PUSH2 0x398 PUSH1 0x84 DUP3 ADD PUSH2 0xF10 JUMP JUMPDEST ISZERO ISZERO PUSH1 0xC0 DUP8 ADD MSTORE PUSH3 0xFFFFFF PUSH2 0x3AF PUSH1 0xA4 DUP4 ADD PUSH2 0xF1D JUMP JUMPDEST AND PUSH1 0xE0 DUP8 ADD MSTORE PUSH1 0xC4 SWAP9 PUSH2 0x3C4 PUSH1 0xC4 DUP4 ADD PUSH2 0xEAE JUMP JUMPDEST AND PUSH2 0x100 DUP8 ADD MSTORE PUSH1 0xE4 DUP2 ADD CALLDATALOAD PUSH2 0x120 DUP8 ADD MSTORE ADD CALLDATALOAD SWAP1 DUP5 ADD MSTORE PUSH2 0x160 DUP4 ADD MSTORE SUB SWAP4 PUSH2 0x3F6 PUSH1 0x1F NOT SWAP6 DUP7 DUP2 ADD DUP5 MSTORE DUP4 PUSH2 0xEC2 JUMP JUMPDEST DUP6 EXTCODESIZE ISZERO PUSH2 0x4BB JUMPI SWAP8 SWAP4 SWAP2 DUP10 SWAP6 SWAP4 SWAP2 PUSH1 0x40 MLOAD SWAP10 DUP11 SWAP7 PUSH4 0x10AC2DDF PUSH1 0xE2 SHL DUP9 MSTORE ADDRESS PUSH1 0x4 DUP10 ADD MSTORE DUP11 DUP9 ADD MSTORE DUP10 CALLDATALOAD SWAP1 DUP8 ADD MSTORE PUSH1 0xA0 PUSH1 0x64 DUP8 ADD MSTORE DUP1 MLOAD SWAP3 DUP4 PUSH1 0xA4 DUP9 ADD MSTORE DUP8 JUMPDEST DUP5 DUP2 LT PUSH2 0x4A2 JUMPI POP POP POP POP PUSH1 0xC4 DUP5 DUP1 SWAP4 PUSH1 0x1F DUP5 DUP10 DUP6 DUP2 SWAP8 DUP7 ADD ADD MSTORE DUP6 PUSH1 0x84 DUP6 ADD MSTORE ADD AND DUP2 ADD SUB ADD SWAP3 GAS CALL DUP1 ISZERO PUSH2 0x497 JUMPI PUSH2 0x473 JUMPI JUMPDEST DUP4 PUSH1 0x1 DUP1 SSTORE DUP1 RETURN JUMPDEST DUP3 GT PUSH2 0x485 JUMPI POP PUSH1 0x40 MSTORE CODESIZE DUP1 DUP1 PUSH2 0x46B JUMP JUMPDEST PUSH4 0x4E487B71 PUSH1 0xE0 SHL DUP4 MSTORE PUSH1 0x41 PUSH1 0x4 MSTORE DUP3 REVERT JUMPDEST PUSH1 0x40 MLOAD RETURNDATASIZE DUP7 DUP3 RETURNDATACOPY RETURNDATASIZE SWAP1 REVERT JUMPDEST DUP3 DUP2 ADD DUP5 ADD MLOAD DUP13 DUP3 ADD DUP4 ADD MSTORE DUP13 SWAP9 POP DUP12 SWAP8 POP DUP4 ADD PUSH2 0x436 JUMP JUMPDEST DUP10 DUP1 REVERT JUMPDEST DUP5 SWAP10 POP DUP4 SWAP6 SWAP7 SWAP8 SWAP9 DUP14 PUSH2 0x4D5 DUP4 SWAP5 SWAP7 SWAP6 SWAP8 PUSH2 0xEAE JUMP JUMPDEST AND DUP2 MSTORE ADD SWAP9 ADD SWAP2 ADD SWAP2 DUP9 SWAP8 SWAP7 SWAP6 SWAP5 SWAP4 SWAP2 SWAP3 PUSH2 0x35F JUMP JUMPDEST POP DUP1 REVERT JUMPDEST PUSH1 0x40 MLOAD PUSH3 0x461BCD PUSH1 0xE5 SHL DUP2 MSTORE PUSH1 0x20 PUSH1 0x4 DUP3 ADD MSTORE PUSH1 0xE DUP2 DUP14 ADD MSTORE PUSH14 0xE0C2E8D08240DAD2E6DAC2E8C6D PUSH1 0x93 SHL DUP2 DUP11 ADD MSTORE PUSH1 0x64 SWAP1 REVERT JUMPDEST DUP14 DUP1 REVERT JUMPDEST PUSH4 0x4E487B71 PUSH1 0xE0 SHL DUP14 MSTORE PUSH1 0x32 PUSH1 0x4 MSTORE DUP11 DUP14 REVERT JUMPDEST PUSH1 0x40 MLOAD PUSH3 0x461BCD PUSH1 0xE5 SHL DUP2 MSTORE PUSH1 0x20 PUSH1 0x4 DUP3 ADD MSTORE PUSH1 0xB DUP2 DUP13 ADD MSTORE PUSH11 0x1C185D1A10481CDA1BDC9D PUSH1 0xAA SHL DUP2 DUP10 ADD MSTORE PUSH1 0x64 SWAP1 REVERT JUMPDEST PUSH1 0x40 MLOAD PUSH3 0x461BCD PUSH1 0xE5 SHL DUP2 MSTORE PUSH1 0x20 PUSH1 0x4 DUP3 ADD MSTORE PUSH1 0x5 DUP2 DUP12 ADD MSTORE PUSH5 0x7374616C65 PUSH1 0xD8 SHL DUP2 DUP9 ADD MSTORE PUSH1 0x64 SWAP1 REVERT JUMPDEST PUSH1 0x40 MLOAD PUSH4 0x3EE5AEB5 PUSH1 0xE0 SHL DUP2 MSTORE PUSH1 0x4 SWAP1 REVERT JUMPDEST DUP9 DUP1 REVERT JUMPDEST DUP7 DUP1 REVERT JUMPDEST POP CALLVALUE PUSH2 0x108 JUMPI DUP1 PUSH1 0x3 NOT CALLDATASIZE ADD SLT PUSH2 0x108 JUMPI PUSH1 0x40 MLOAD PUSH32 0x0 PUSH1 0x1 PUSH1 0x1 PUSH1 0xA0 SHL SUB AND DUP2 MSTORE PUSH1 0x20 SWAP1 RETURN JUMPDEST DUP3 CALLVALUE PUSH2 0x108 JUMPI PUSH1 0xA0 CALLDATASIZE PUSH1 0x3 NOT ADD SLT PUSH2 0x108 JUMPI PUSH2 0x60F PUSH2 0xE98 JUMP JUMPDEST PUSH1 0x64 CALLDATALOAD PUSH1 0x1 PUSH1 0x1 PUSH1 0xA0 SHL SUB DUP2 AND SUB PUSH2 0x4EB JUMPI PUSH1 0x84 CALLDATALOAD SWAP2 PUSH1 0x1 PUSH1 0x1 PUSH1 0x40 SHL SUB DUP4 GT PUSH2 0x108 JUMPI CALLDATASIZE PUSH1 0x23 DUP5 ADD SLT ISZERO PUSH2 0x108 JUMPI DUP3 PUSH1 0x4 ADD CALLDATALOAD PUSH1 0x1 PUSH1 0x1 PUSH1 0x40 SHL SUB DUP2 GT PUSH2 0x4EB JUMPI DUP4 ADD SWAP4 CALLDATASIZE PUSH1 0x24 DUP7 ADD GT PUSH2 0x4EB JUMPI PUSH32 0x0 PUSH1 0x1 PUSH1 0x1 PUSH1 0xA0 SHL SUB AND CALLER SUB PUSH2 0xE6A JUMPI POP PUSH1 0x20 DUP4 DUP6 SUB SLT PUSH2 0x108 JUMPI PUSH1 0x24 DUP4 ADD CALLDATALOAD PUSH1 0x1 PUSH1 0x1 PUSH1 0x40 SHL SUB DUP2 GT PUSH2 0x4EB JUMPI PUSH2 0x140 SWAP4 DUP5 DUP3 DUP3 ADD DUP8 SUB SLT PUSH2 0xE66 JUMPI PUSH1 0x40 MLOAD SWAP5 DUP6 ADD DUP6 DUP2 LT PUSH1 0x1 PUSH1 0x1 PUSH1 0x40 SHL SUB DUP3 GT OR PUSH2 0xE52 JUMPI PUSH1 0x40 MSTORE PUSH2 0x6E4 PUSH1 0x24 DUP4 DUP4 ADD ADD PUSH2 0xEAE JUMP JUMPDEST DUP6 MSTORE PUSH1 0x44 DUP3 DUP3 ADD ADD CALLDATALOAD PUSH1 0x1 PUSH1 0x1 PUSH1 0x40 SHL SUB DUP2 GT PUSH2 0xE4E JUMPI PUSH1 0x24 DUP8 ADD PUSH1 0x43 DUP3 DUP6 DUP6 ADD ADD ADD SLT ISZERO PUSH2 0xE4E JUMPI PUSH1 0x24 DUP2 DUP5 DUP5 ADD ADD ADD CALLDATALOAD PUSH2 0x71F DUP2 PUSH2 0xEF9 JUMP JUMPDEST SWAP2 PUSH2 0x72D PUSH1 0x40 MLOAD SWAP4 DUP5 PUSH2 0xEC2 JUMP JUMPDEST DUP2 DUP4 MSTORE PUSH1 0x24 PUSH1 0x20 DUP5 ADD SWAP10 ADD PUSH1 0x44 DUP4 PUSH1 0x5 SHL DUP4 DUP9 DUP9 ADD ADD ADD ADD GT PUSH2 0xE4A JUMPI PUSH1 0x44 DUP2 DUP7 DUP7 ADD ADD ADD SWAP9 JUMPDEST PUSH1 0x44 DUP4 PUSH1 0x5 SHL DUP4 DUP9 DUP9 ADD ADD ADD ADD DUP11 LT PUSH2 0xE2C JUMPI POP POP POP PUSH1 0x20 DUP7 ADD MSTORE DUP2 DUP2 ADD PUSH1 0x64 DUP2 ADD CALLDATALOAD PUSH1 0x40 DUP8 ADD MSTORE PUSH2 0x144 SWAP3 SWAP2 SWAP1 PUSH2 0x78E SWAP1 PUSH1 0x84 ADD PUSH2 0xEAE JUMP JUMPDEST PUSH1 0x60 DUP8 ADD MSTORE PUSH2 0x7A1 PUSH1 0xA4 DUP4 DUP4 ADD ADD PUSH2 0xF10 JUMP JUMPDEST PUSH1 0x80 DUP8 ADD MSTORE PUSH2 0x7B4 PUSH1 0xC4 DUP4 DUP4 ADD ADD PUSH2 0xF1D JUMP JUMPDEST PUSH1 0xA0 DUP8 ADD MSTORE PUSH2 0x7C7 PUSH1 0xE4 DUP4 DUP4 ADD ADD PUSH2 0xEAE JUMP JUMPDEST PUSH1 0xC0 DUP8 ADD MSTORE ADD PUSH2 0x104 DUP2 ADD CALLDATALOAD PUSH1 0xE0 DUP7 ADD MSTORE PUSH2 0x124 DUP2 ADD CALLDATALOAD PUSH2 0x100 DUP7 ADD MSTORE ADD CALLDATALOAD PUSH2 0x120 DUP5 ADD DUP2 SWAP1 MSTORE TIMESTAMP GT PUSH2 0xDFD JUMPI DUP3 MLOAD PUSH2 0x811 SWAP1 PUSH1 0x24 CALLDATALOAD SWAP1 PUSH1 0x1 PUSH1 0x1 PUSH1 0xA0 SHL SUB SWAP1 DUP2 AND SWAP1 DUP6 AND PUSH2 0x1094 JUMP JUMPDEST PUSH2 0x855 DUP2 PUSH1 0x1 DUP1 PUSH1 0xA0 SHL SUB DUP6 MLOAD AND PUSH1 0x40 DUP7 ADD MLOAD SWAP1 PUSH1 0x20 DUP8 ADD MLOAD SWAP2 DUP4 PUSH2 0x120 DUP10 ADD MLOAD SWAP4 PUSH1 0x40 MLOAD SWAP7 DUP8 SWAP6 DUP7 SWAP5 DUP6 SWAP4 PUSH4 0x38ED1739 PUSH1 0xE0 SHL DUP6 MSTORE ADDRESS SWAP2 PUSH1 0x24 CALLDATALOAD PUSH1 0x4 DUP8 ADD PUSH2 0xFA6 JUMP JUMPDEST SUB SWAP3 GAS CALL SWAP1 DUP2 ISZERO PUSH2 0xB68 JUMPI DUP3 SWAP2 PUSH2 0xDE3 JUMPI JUMPDEST POP DUP1 MLOAD DUP1 PUSH1 0x0 NOT DUP2 ADD GT PUSH2 0xD85 JUMPI SWAP1 PUSH2 0x884 SWAP2 PUSH1 0x0 NOT ADD SWAP1 PUSH2 0x1012 JUMP JUMPDEST MLOAD PUSH1 0x80 DUP5 ADD MLOAD ISZERO PUSH2 0xC61 JUMPI PUSH1 0x20 DUP5 ADD MLOAD DUP1 MLOAD SWAP1 DUP2 PUSH1 0x0 NOT DUP2 ADD GT PUSH2 0xC4D JUMPI PUSH2 0x8D7 SWAP2 DUP4 SWAP2 PUSH1 0x1 PUSH1 0x1 PUSH1 0xA0 SHL SUB SWAP2 PUSH2 0x8C1 SWAP2 PUSH1 0x0 NOT SWAP1 SWAP2 ADD SWAP1 PUSH2 0x1012 JUMP JUMPDEST MLOAD PUSH1 0x60 DUP9 ADD MLOAD PUSH1 0x1 PUSH1 0x1 PUSH1 0xA0 SHL SUB AND SWAP2 AND PUSH2 0x1094 JUMP JUMPDEST PUSH1 0x1 DUP1 PUSH1 0xA0 SHL SUB PUSH1 0x60 DUP6 ADD MLOAD AND SWAP1 PUSH1 0x20 DUP6 ADD MLOAD DUP1 MLOAD SWAP1 DUP2 PUSH1 0x0 NOT DUP2 ADD GT PUSH2 0xC39 JUMPI PUSH1 0x1 PUSH1 0x1 PUSH1 0xA0 SHL SUB SWAP2 PUSH2 0x911 SWAP2 PUSH1 0x0 NOT SWAP1 SWAP2 ADD SWAP1 PUSH2 0x1012 JUMP JUMPDEST MLOAD AND SWAP1 PUSH1 0x1 DUP1 PUSH1 0xA0 SHL SUB PUSH1 0xC0 DUP8 ADD MLOAD AND SWAP1 PUSH3 0xFFFFFF PUSH1 0xA0 DUP9 ADD MLOAD AND PUSH2 0x120 DUP9 ADD MLOAD SWAP1 PUSH1 0xE0 DUP10 ADD MLOAD SWAP4 PUSH1 0x40 MLOAD SWAP6 DUP7 PUSH2 0x100 DUP2 ADD LT PUSH1 0x1 PUSH1 0x1 PUSH1 0x40 SHL SUB PUSH2 0x100 DUP10 ADD GT OR PUSH2 0xC25 JUMPI PUSH2 0x100 DUP8 ADD PUSH1 0x40 SWAP1 DUP2 MSTORE SWAP1 DUP8 MSTORE PUSH1 0x20 DUP1 DUP9 ADD SWAP3 DUP4 MSTORE DUP2 DUP9 ADD SWAP4 DUP5 MSTORE ADDRESS PUSH1 0x60 DUP10 ADD SWAP1 DUP2 MSTORE PUSH1 0x80 DUP10 ADD SWAP6 DUP7 MSTORE PUSH1 0xA0 DUP10 ADD SWAP7 DUP8 MSTORE PUSH1 0xC0 DUP10 ADD SWAP8 DUP9 MSTORE PUSH1 0xE0 DUP10 ADD DUP12 DUP2 MSTORE SWAP3 MLOAD PUSH4 0x414BF389 PUSH1 0xE0 SHL DUP2 MSTORE SWAP9 MLOAD PUSH1 0x1 PUSH1 0x1 PUSH1 0xA0 SHL SUB SWAP1 DUP2 AND PUSH1 0x4 DUP12 ADD MSTORE SWAP4 MLOAD DUP5 AND PUSH1 0x24 DUP11 ADD MSTORE SWAP4 MLOAD PUSH3 0xFFFFFF AND PUSH1 0x44 DUP10 ADD MSTORE SWAP3 MLOAD DUP3 AND PUSH1 0x64 DUP9 ADD MSTORE SWAP3 MLOAD PUSH1 0x84 DUP8 ADD MSTORE SWAP3 MLOAD PUSH1 0xA4 DUP7 ADD MSTORE SWAP3 MLOAD PUSH1 0xC4 DUP6 ADD MSTORE MLOAD AND PUSH1 0xE4 DUP4 ADD MSTORE SWAP1 SWAP2 DUP3 SWAP1 PUSH2 0x104 SWAP1 DUP3 SWAP1 DUP7 SWAP1 GAS CALL SWAP1 DUP2 ISZERO PUSH2 0xB68 JUMPI DUP3 SWAP2 PUSH2 0xBF3 JUMPI JUMPDEST POP SWAP3 JUMPDEST PUSH1 0xC0 DUP2 ADD MLOAD PUSH1 0x1 PUSH1 0x1 PUSH1 0xA0 SHL SUB DUP5 DUP2 AND SWAP2 AND SUB PUSH2 0xBB8 JUMPI PUSH2 0xA41 PUSH2 0x100 PUSH2 0xA38 PUSH1 0x44 CALLDATALOAD PUSH1 0x24 CALLDATALOAD PUSH2 0x103C JUMP JUMPDEST SWAP3 ADD MLOAD DUP3 PUSH2 0x103C JUMP JUMPDEST DUP5 LT PUSH2 0xB87 JUMPI PUSH2 0xA7B DUP2 PUSH32 0x0 PUSH1 0x1 PUSH1 0x1 PUSH1 0xA0 SHL SUB DUP7 AND PUSH2 0x118B JUMP JUMPDEST DUP4 SUB SWAP3 DUP4 GT PUSH2 0xB73 JUMPI PUSH1 0x40 MLOAD PUSH4 0x70A08231 PUSH1 0xE0 SHL DUP2 MSTORE ADDRESS PUSH1 0x4 DUP3 ADD MSTORE PUSH1 0x20 DUP2 PUSH1 0x24 DUP2 PUSH1 0x1 PUSH1 0x1 PUSH1 0xA0 SHL SUB DUP8 AND GAS STATICCALL SWAP1 DUP2 ISZERO PUSH2 0xB68 JUMPI DUP3 SWAP2 PUSH2 0xB35 JUMPI JUMPDEST POP SWAP2 PUSH1 0x60 SWAP2 DUP4 PUSH32 0xE1980D8C05617EBE0331BAB77B170AF11F37D477BBBC3E732A7477CF887932CD SWAP5 PUSH2 0xB14 JUMPI JUMPDEST POP POP PUSH1 0x40 DUP1 MLOAD PUSH1 0x24 CALLDATALOAD DUP2 MSTORE PUSH1 0x20 DUP2 ADD SWAP6 SWAP1 SWAP6 MSTORE PUSH1 0x44 CALLDATALOAD SWAP1 DUP6 ADD MSTORE PUSH1 0x1 PUSH1 0x1 PUSH1 0xA0 SHL SUB AND SWAP3 LOG2 PUSH1 0x20 PUSH1 0x40 MLOAD PUSH1 0x1 DUP2 MSTORE RETURN JUMPDEST SWAP1 SLOAD PUSH2 0xB2E SWAP2 SWAP1 PUSH1 0x1 PUSH1 0x1 PUSH1 0xA0 SHL SUB SWAP1 DUP2 AND SWAP1 DUP5 AND PUSH2 0x118B JUMP JUMPDEST DUP5 DUP1 PUSH2 0xAE4 JUMP JUMPDEST SWAP1 POP PUSH1 0x20 DUP2 RETURNDATASIZE PUSH1 0x20 GT PUSH2 0xB60 JUMPI JUMPDEST DUP2 PUSH2 0xB50 PUSH1 0x20 SWAP4 DUP4 PUSH2 0xEC2 JUMP JUMPDEST DUP2 ADD SUB SLT PUSH2 0x4EB JUMPI MLOAD PUSH1 0x60 PUSH2 0xAB7 JUMP JUMPDEST RETURNDATASIZE SWAP2 POP PUSH2 0xB43 JUMP JUMPDEST PUSH1 0x40 MLOAD RETURNDATASIZE DUP5 DUP3 RETURNDATACOPY RETURNDATASIZE SWAP1 REVERT JUMPDEST PUSH4 0x4E487B71 PUSH1 0xE0 SHL DUP2 MSTORE PUSH1 0x11 PUSH1 0x4 MSTORE PUSH1 0x24 SWAP1 REVERT JUMPDEST PUSH1 0x40 MLOAD PUSH3 0x461BCD PUSH1 0xE5 SHL DUP2 MSTORE PUSH1 0x20 PUSH1 0x4 DUP3 ADD MSTORE PUSH1 0x9 PUSH1 0x24 DUP3 ADD MSTORE PUSH9 0x1B9BC81C1C9BD99A5D PUSH1 0xBA SHL PUSH1 0x44 DUP3 ADD MSTORE PUSH1 0x64 SWAP1 REVERT JUMPDEST PUSH1 0x40 MLOAD PUSH3 0x461BCD PUSH1 0xE5 SHL DUP2 MSTORE PUSH1 0x20 PUSH1 0x4 DUP3 ADD MSTORE PUSH1 0x13 PUSH1 0x24 DUP3 ADD MSTORE PUSH19 0x199A5B985B081B5D5CDD08189948185CDCD95D PUSH1 0x6A SHL PUSH1 0x44 DUP3 ADD MSTORE PUSH1 0x64 SWAP1 REVERT JUMPDEST SWAP1 POP PUSH1 0x20 DUP2 RETURNDATASIZE PUSH1 0x20 GT PUSH2 0xC1D JUMPI JUMPDEST DUP2 PUSH2 0xC0E PUSH1 0x20 SWAP4 DUP4 PUSH2 0xEC2 JUMP JUMPDEST DUP2 ADD SUB SLT PUSH2 0x4EB JUMPI MLOAD DUP5 PUSH2 0xA0A JUMP JUMPDEST RETURNDATASIZE SWAP2 POP PUSH2 0xC01 JUMP JUMPDEST PUSH4 0x4E487B71 PUSH1 0xE0 SHL DUP10 MSTORE PUSH1 0x41 PUSH1 0x4 MSTORE PUSH1 0x24 DUP10 REVERT JUMPDEST PUSH4 0x4E487B71 PUSH1 0xE0 SHL DUP6 MSTORE PUSH1 0x11 PUSH1 0x4 MSTORE PUSH1 0x24 DUP6 REVERT JUMPDEST PUSH4 0x4E487B71 PUSH1 0xE0 SHL DUP5 MSTORE PUSH1 0x11 PUSH1 0x4 MSTORE PUSH1 0x24 DUP5 REVERT JUMPDEST PUSH1 0x20 DUP5 ADD MLOAD DUP1 MLOAD SWAP1 DUP2 PUSH1 0x0 NOT DUP2 ADD GT PUSH2 0xC4D JUMPI PUSH2 0xC93 SWAP2 DUP4 SWAP2 PUSH1 0x1 PUSH1 0x1 PUSH1 0xA0 SHL SUB SWAP2 PUSH2 0x8C1 SWAP2 PUSH1 0x0 NOT SWAP1 SWAP2 ADD SWAP1 PUSH2 0x1012 JUMP JUMPDEST PUSH1 0x40 MLOAD SWAP1 DUP2 PUSH1 0x60 DUP2 ADD LT PUSH1 0x1 PUSH1 0x1 PUSH1 0x40 SHL SUB PUSH1 0x60 DUP5 ADD GT OR PUSH2 0xDCF JUMPI PUSH1 0x60 DUP3 ADD PUSH1 0x40 MSTORE PUSH1 0x2 DUP3 MSTORE PUSH1 0x40 CALLDATASIZE PUSH1 0x20 DUP5 ADD CALLDATACOPY PUSH1 0x20 DUP6 ADD MLOAD DUP1 MLOAD PUSH1 0x0 NOT DUP2 ADD SWAP1 DUP2 GT PUSH2 0xC39 JUMPI PUSH1 0x1 PUSH1 0x1 PUSH1 0xA0 SHL SUB SWAP2 PUSH2 0xCE8 SWAP2 SWAP1 PUSH2 0x1012 JUMP JUMPDEST MLOAD AND DUP3 MLOAD ISZERO PUSH2 0xDBB JUMPI PUSH1 0x20 DUP4 ADD MSTORE PUSH1 0x1 DUP1 PUSH1 0xA0 SHL SUB PUSH1 0xC0 DUP7 ADD MLOAD AND DUP3 MLOAD PUSH1 0x1 LT ISZERO PUSH2 0xDBB JUMPI SWAP1 DUP4 SWAP2 PUSH1 0x40 DUP5 ADD MSTORE PUSH1 0x1 DUP1 PUSH1 0xA0 SHL SUB PUSH1 0x60 DUP8 ADD MLOAD AND PUSH1 0xE0 DUP8 ADD MLOAD SWAP4 DUP4 PUSH2 0x120 DUP10 ADD MLOAD SWAP6 PUSH2 0xD52 PUSH1 0x40 MLOAD SWAP8 DUP9 SWAP7 DUP8 SWAP6 DUP7 SWAP5 PUSH4 0x38ED1739 PUSH1 0xE0 SHL DUP7 MSTORE ADDRESS SWAP3 PUSH1 0x4 DUP8 ADD PUSH2 0xFA6 JUMP JUMPDEST SUB SWAP3 GAS CALL SWAP1 DUP2 ISZERO PUSH2 0xB68 JUMPI DUP3 SWAP2 PUSH2 0xD99 JUMPI JUMPDEST POP DUP1 MLOAD PUSH1 0x0 NOT DUP2 ADD SWAP2 SWAP1 DUP3 GT PUSH2 0xD85 JUMPI SWAP1 PUSH2 0xD7E SWAP2 PUSH2 0x1012 JUMP JUMPDEST MLOAD SWAP3 PUSH2 0xA0D JUMP JUMPDEST PUSH4 0x4E487B71 PUSH1 0xE0 SHL DUP4 MSTORE PUSH1 0x11 PUSH1 0x4 MSTORE PUSH1 0x24 DUP4 REVERT JUMPDEST PUSH2 0xDB5 SWAP2 POP RETURNDATASIZE DUP1 DUP5 DUP4 RETURNDATACOPY PUSH2 0xDAD DUP2 DUP4 PUSH2 0xEC2 JUMP JUMPDEST DUP2 ADD SWAP1 PUSH2 0xF2D JUMP JUMPDEST DUP5 PUSH2 0xD64 JUMP JUMPDEST PUSH4 0x4E487B71 PUSH1 0xE0 SHL DUP5 MSTORE PUSH1 0x32 PUSH1 0x4 MSTORE PUSH1 0x24 DUP5 REVERT JUMPDEST PUSH4 0x4E487B71 PUSH1 0xE0 SHL DUP4 MSTORE PUSH1 0x41 PUSH1 0x4 MSTORE PUSH1 0x24 DUP4 REVERT JUMPDEST PUSH2 0xDF7 SWAP2 POP RETURNDATASIZE DUP1 DUP5 DUP4 RETURNDATACOPY PUSH2 0xDAD DUP2 DUP4 PUSH2 0xEC2 JUMP JUMPDEST DUP5 PUSH2 0x867 JUMP JUMPDEST PUSH1 0x40 MLOAD PUSH3 0x461BCD PUSH1 0xE5 SHL DUP2 MSTORE PUSH1 0x20 PUSH1 0x4 DUP3 ADD MSTORE PUSH1 0x7 PUSH1 0x24 DUP3 ADD MSTORE PUSH7 0x195E1C1A5C9959 PUSH1 0xCA SHL PUSH1 0x44 DUP3 ADD MSTORE PUSH1 0x64 SWAP1 REVERT JUMPDEST SWAP1 PUSH1 0x20 DUP1 PUSH1 0x44 SWAP4 PUSH2 0xE3C DUP14 PUSH2 0xEAE JUMP JUMPDEST DUP2 MSTORE ADD SWAP11 ADD SWAP10 SWAP1 SWAP2 POP PUSH2 0x754 JUMP JUMPDEST DUP6 DUP1 REVERT JUMPDEST DUP4 DUP1 REVERT JUMPDEST PUSH4 0x4E487B71 PUSH1 0xE0 SHL DUP5 MSTORE PUSH1 0x41 PUSH1 0x4 MSTORE PUSH1 0x24 DUP5 REVERT JUMPDEST DUP3 DUP1 REVERT JUMPDEST PUSH3 0x461BCD PUSH1 0xE5 SHL DUP2 MSTORE PUSH1 0x20 PUSH1 0x4 DUP3 ADD MSTORE PUSH1 0x9 PUSH1 0x24 DUP3 ADD MSTORE PUSH9 0x1BDB9B1E481C1BDBDB PUSH1 0xBA SHL PUSH1 0x44 DUP3 ADD MSTORE PUSH1 0x64 SWAP1 REVERT JUMPDEST PUSH1 0x4 CALLDATALOAD SWAP1 PUSH1 0x1 PUSH1 0x1 PUSH1 0xA0 SHL SUB DUP3 AND DUP3 SUB PUSH2 0x1BF JUMPI JUMP JUMPDEST CALLDATALOAD SWAP1 PUSH1 0x1 PUSH1 0x1 PUSH1 0xA0 SHL SUB DUP3 AND DUP3 SUB PUSH2 0x1BF JUMPI JUMP JUMPDEST SWAP1 PUSH1 0x1F DUP1 NOT SWAP2 ADD AND DUP2 ADD SWAP1 DUP2 LT PUSH1 0x1 PUSH1 0x1 PUSH1 0x40 SHL SUB DUP3 GT OR PUSH2 0xEE3 JUMPI PUSH1 0x40 MSTORE JUMP JUMPDEST PUSH4 0x4E487B71 PUSH1 0xE0 SHL PUSH1 0x0 MSTORE PUSH1 0x41 PUSH1 0x4 MSTORE PUSH1 0x24 PUSH1 0x0 REVERT JUMPDEST PUSH1 0x1 PUSH1 0x1 PUSH1 0x40 SHL SUB DUP2 GT PUSH2 0xEE3 JUMPI PUSH1 0x5 SHL PUSH1 0x20 ADD SWAP1 JUMP JUMPDEST CALLDATALOAD SWAP1 DUP2 ISZERO ISZERO DUP3 SUB PUSH2 0x1BF JUMPI JUMP JUMPDEST CALLDATALOAD SWAP1 PUSH3 0xFFFFFF DUP3 AND DUP3 SUB PUSH2 0x1BF JUMPI JUMP JUMPDEST PUSH1 0x20 SWAP1 DUP2 DUP2 DUP5 SUB SLT PUSH2 0x1BF JUMPI DUP1 MLOAD SWAP1 PUSH1 0x1 PUSH1 0x1 PUSH1 0x40 SHL SUB DUP3 GT PUSH2 0x1BF JUMPI ADD SWAP2 DUP1 PUSH1 0x1F DUP5 ADD SLT ISZERO PUSH2 0x1BF JUMPI DUP3 MLOAD PUSH2 0xF62 DUP2 PUSH2 0xEF9 JUMP JUMPDEST SWAP4 PUSH2 0xF70 PUSH1 0x40 MLOAD SWAP6 DUP7 PUSH2 0xEC2 JUMP JUMPDEST DUP2 DUP6 MSTORE DUP4 DUP1 DUP7 ADD SWAP3 PUSH1 0x5 SHL DUP3 ADD ADD SWAP3 DUP4 GT PUSH2 0x1BF JUMPI DUP4 ADD SWAP1 JUMPDEST DUP3 DUP3 LT PUSH2 0xF97 JUMPI POP POP POP POP SWAP1 JUMP JUMPDEST DUP2 MLOAD DUP2 MSTORE SWAP1 DUP4 ADD SWAP1 DUP4 ADD PUSH2 0xF89 JUMP JUMPDEST SWAP3 SWAP2 SWAP1 SWAP6 SWAP5 SWAP4 SWAP6 PUSH1 0xA0 DUP5 ADD SWAP1 DUP5 MSTORE PUSH1 0x20 SWAP2 PUSH1 0x20 DUP6 ADD MSTORE PUSH1 0xA0 PUSH1 0x40 DUP6 ADD MSTORE DUP3 MLOAD DUP1 SWAP2 MSTORE PUSH1 0x20 PUSH1 0xC0 DUP6 ADD SWAP4 ADD SWAP2 PUSH1 0x0 JUMPDEST DUP3 DUP2 LT PUSH2 0xFF5 JUMPI POP POP POP POP SWAP1 PUSH1 0x80 SWAP2 SWAP5 PUSH1 0x1 DUP1 PUSH1 0xA0 SHL SUB AND PUSH1 0x60 DUP3 ADD MSTORE ADD MSTORE JUMP JUMPDEST DUP4 MLOAD PUSH1 0x1 PUSH1 0x1 PUSH1 0xA0 SHL SUB AND DUP6 MSTORE SWAP4 DUP2 ADD SWAP4 SWAP3 DUP2 ADD SWAP3 PUSH1 0x1 ADD PUSH2 0xFD4 JUMP JUMPDEST DUP1 MLOAD DUP3 LT ISZERO PUSH2 0x1026 JUMPI PUSH1 0x20 SWAP2 PUSH1 0x5 SHL ADD ADD SWAP1 JUMP JUMPDEST PUSH4 0x4E487B71 PUSH1 0xE0 SHL PUSH1 0x0 MSTORE PUSH1 0x32 PUSH1 0x4 MSTORE PUSH1 0x24 PUSH1 0x0 REVERT JUMPDEST SWAP2 SWAP1 DUP3 ADD DUP1 SWAP3 GT PUSH2 0x1049 JUMPI JUMP JUMPDEST PUSH4 0x4E487B71 PUSH1 0xE0 SHL PUSH1 0x0 MSTORE PUSH1 0x11 PUSH1 0x4 MSTORE PUSH1 0x24 PUSH1 0x0 REVERT JUMPDEST SWAP1 CALLDATALOAD SWAP1 PUSH1 0x1E NOT DUP2 CALLDATASIZE SUB ADD DUP3 SLT ISZERO PUSH2 0x1BF JUMPI ADD DUP1 CALLDATALOAD SWAP1 PUSH1 0x1 PUSH1 0x1 PUSH1 0x40 SHL SUB DUP3 GT PUSH2 0x1BF JUMPI PUSH1 0x20 ADD SWAP2 DUP2 PUSH1 0x5 SHL CALLDATASIZE SUB DUP4 SGT PUSH2 0x1BF JUMPI JUMP JUMPDEST PUSH1 0x40 MLOAD PUSH4 0x95EA7B3 PUSH1 0xE0 SHL PUSH1 0x20 DUP3 ADD DUP2 DUP2 MSTORE PUSH1 0x1 PUSH1 0x1 PUSH1 0xA0 SHL SUB DUP6 AND PUSH1 0x24 DUP5 ADD MSTORE PUSH1 0x44 DUP1 DUP5 ADD SWAP7 SWAP1 SWAP7 MSTORE SWAP5 DUP3 MSTORE SWAP5 SWAP4 SWAP1 SWAP3 PUSH2 0x10D0 PUSH1 0x64 DUP6 PUSH2 0xEC2 JUMP JUMPDEST PUSH1 0x20 PUSH1 0x0 DUP1 SWAP4 DUP7 MLOAD SWAP1 DUP3 DUP8 GAS CALL DUP3 MLOAD RETURNDATASIZE DUP3 PUSH2 0x1166 JUMPI JUMPDEST POP POP ISZERO PUSH2 0x10F6 JUMPI JUMPDEST POP POP POP POP SWAP1 POP JUMP JUMPDEST PUSH1 0x40 MLOAD PUSH1 0x20 DUP2 ADD SWAP7 SWAP1 SWAP7 MSTORE PUSH1 0x1 PUSH1 0x1 PUSH1 0xA0 SHL SUB AND PUSH1 0x24 DUP7 ADD MSTORE PUSH1 0x44 DUP1 DUP7 ADD DUP3 SWAP1 MSTORE DUP6 MSTORE PUSH1 0x80 DUP6 ADD SWAP1 PUSH1 0x1 PUSH1 0x1 PUSH1 0x40 SHL SUB DUP3 GT DUP7 DUP4 LT OR PUSH2 0x1152 JUMPI POP PUSH2 0x1148 SWAP4 SWAP5 PUSH2 0x1143 SWAP2 PUSH1 0x40 MSTORE DUP3 PUSH2 0x11F5 JUMP JUMPDEST PUSH2 0x11F5 JUMP JUMPDEST DUP1 CODESIZE DUP1 DUP1 DUP1 PUSH2 0x10EE JUMP JUMPDEST PUSH4 0x4E487B71 PUSH1 0xE0 SHL DUP2 MSTORE PUSH1 0x41 PUSH1 0x4 MSTORE PUSH1 0x24 SWAP1 REVERT JUMPDEST SWAP1 SWAP2 POP PUSH2 0x1183 JUMPI POP PUSH1 0x1 PUSH1 0x1 PUSH1 0xA0 SHL SUB DUP4 AND EXTCODESIZE ISZERO ISZERO JUMPDEST CODESIZE DUP1 PUSH2 0x10E6 JUMP JUMPDEST PUSH1 0x1 EQ PUSH2 0x117C JUMP JUMPDEST PUSH1 0x40 MLOAD PUSH4 0xA9059CBB PUSH1 0xE0 SHL PUSH1 0x20 DUP3 ADD MSTORE PUSH1 0x1 PUSH1 0x1 PUSH1 0xA0 SHL SUB SWAP3 SWAP1 SWAP3 AND PUSH1 0x24 DUP4 ADD MSTORE PUSH1 0x44 DUP1 DUP4 ADD SWAP4 SWAP1 SWAP4 MSTORE SWAP2 DUP2 MSTORE PUSH2 0x11C7 SWAP2 PUSH2 0x1143 PUSH1 0x64 DUP4 PUSH2 0xEC2 JUMP JUMPDEST JUMP JUMPDEST PUSH1 0x0 SLOAD PUSH1 0x1 PUSH1 0x1 PUSH1 0xA0 SHL SUB AND CALLER SUB PUSH2 0x11DD JUMPI JUMP JUMPDEST PUSH1 0x40 MLOAD PUSH4 0x118CDAA7 PUSH1 0xE0 SHL DUP2 MSTORE CALLER PUSH1 0x4 DUP3 ADD MSTORE PUSH1 0x24 SWAP1 REVERT JUMPDEST SWAP1 PUSH1 0x0 PUSH1 0x20 SWAP2 DUP3 DUP2 MLOAD SWAP2 ADD DUP3 DUP6 GAS CALL ISZERO PUSH2 0x1251 JUMPI PUSH1 0x0 MLOAD RETURNDATASIZE PUSH2 0x1248 JUMPI POP PUSH1 0x1 PUSH1 0x1 PUSH1 0xA0 SHL SUB DUP2 AND EXTCODESIZE ISZERO JUMPDEST PUSH2 0x1226 JUMPI POP JUMP JUMPDEST PUSH1 0x40 MLOAD PUSH4 0x5274AFE7 PUSH1 0xE0 SHL DUP2 MSTORE PUSH1 0x1 PUSH1 0x1 PUSH1 0xA0 SHL SUB SWAP1 SWAP2 AND PUSH1 0x4 DUP3 ADD MSTORE PUSH1 0x24 SWAP1 REVERT JUMPDEST PUSH1 0x1 EQ ISZERO PUSH2 0x121F JUMP JUMPDEST PUSH1 0x40 MLOAD RETURNDATASIZE PUSH1 0x0 DUP3 RETURNDATACOPY RETURNDATASIZE SWAP1 REVERT INVALID LOG2 PUSH5 0x6970667358 0x22 SLT KECCAK256 LOG3 0xCB GASLIMIT BYTE EXTCODEHASH 0xE6 PUSH6 0xE94AA4E5AEB8 SDIV RETURN 0xE 0xD9 DUP4 0xD4 0xBA 0xA9 0xB5 SWAP7 0xD7 0x4E SWAP6 GASPRICE 0x2D 0xB6 SDIV ISZERO 0xE PUSH5 0x736F6C6343 STOP ADDMOD XOR STOP CALLER "},"methodIdentifiers":{"aavePool()":"a03e4bc3","executeOperation(address,uint256,uint256,address,bytes)":"1b11d0ff","initiateFlashArb(address,uint256,(address,address[],uint256,address,bool,uint24,address,uint256,uint256,uint256))":"4879a28f","owner()":"8da5cb5b","renounceOwnership()":"715018a6","rescue(address,uint256,address)":"8671d23b","transferOwnership(address)":"f2fde38b","weth()":"3fc8cef3"}}}}}