{
    "_format": "hh-sol-artifact-1",
    "contractName": "FlashArb",
    "sourceName": "contracts/FlashArb.sol",
    "abi": [
        {
            "inputs": [
                {
                    "internalType": "address",
                    "name": "_aavePool",
                    "type": "address"
                },
                {
                    "internalType": "address",
                    "name": "_weth",
                    "type": "address"
                },
                {
                    "internalType": "address",
                    "name": "initialOwner",
                    "type": "address"
                }
            ],
            "stateMutability": "nonpayable",
            "type": "constructor"
        },
        {
            "inputs": [
                {
                    "internalType": "address",
                    "name": "owner",
                    "type": "address"
                }
            ],
            "name": "OwnableInvalidOwner",
            "type": "error"
        },
        {
            "inputs": [
                {
                    "internalType": "address",
                    "name": "account",
                    "type": "address"
                }
            ],
            "name": "OwnableUnauthorizedAccount",
            "type": "error"
        },
        {
            "inputs": [],
            "name": "ReentrancyGuardReentrantCall",
            "type": "error"
        },
        {
            "inputs": [
                {
                    "internalType": "address",
                    "name": "token",
                    "type": "address"
                }
            ],
            "name": "SafeERC20FailedOperation",
            "type": "error"
        },
        {
            "anonymous": false,
            "inputs": [
                {
                    "indexed": true,
                    "internalType": "address",
                    "name": "asset",
                    "type": "address"
                },
                {
                    "indexed": false,
                    "internalType": "uint256",
                    "name": "amountIn",
                    "type": "uint256"
                },
                {
                    "indexed": false,
                    "internalType": "uint256",
                    "name": "profit",
                    "type": "uint256"
                },
                {
                    "indexed": false,
                    "internalType": "uint256",
                    "name": "premium",
                    "type": "uint256"
                }
            ],
            "name": "ExecutedArb",
            "type": "event"
        },
        {
            "anonymous": false,
            "inputs": [
                {
                    "indexed": true,
                    "internalType": "address",
                    "name": "previousOwner",
                    "type": "address"
                },
                {
                    "indexed": true,
                    "internalType": "address",
                    "name": "newOwner",
                    "type": "address"
                }
            ],
            "name": "OwnershipTransferred",
            "type": "event"
        },
        {
            "inputs": [],
            "name": "aavePool",
            "outputs": [
                {
                    "internalType": "address",
                    "name": "",
                    "type": "address"
                }
            ],
            "stateMutability": "view",
            "type": "function"
        },
        {
            "inputs": [
                {
                    "internalType": "address",
                    "name": "asset",
                    "type": "address"
                },
                {
                    "internalType": "uint256",
                    "name": "amount",
                    "type": "uint256"
                },
                {
                    "internalType": "uint256",
                    "name": "premium",
                    "type": "uint256"
                },
                {
                    "internalType": "address",
                    "name": "",
                    "type": "address"
                },
                {
                    "internalType": "bytes",
                    "name": "params",
                    "type": "bytes"
                }
            ],
            "name": "executeOperation",
            "outputs": [
                {
                    "internalType": "bool",
                    "name": "",
                    "type": "bool"
                }
            ],
            "stateMutability": "nonpayable",
            "type": "function"
        },
        {
            "inputs": [
                {
                    "internalType": "address",
                    "name": "asset",
                    "type": "address"
                },
                {
                    "internalType": "uint256",
                    "name": "amount",
                    "type": "uint256"
                },
                {
                    "components": [
                        {
                            "internalType": "address",
                            "name": "routerA",
                            "type": "address"
                        },
                        {
                            "internalType": "address[]",
                            "name": "pathA",
                            "type": "address[]"
                        },
                        {
                            "internalType": "uint256",
                            "name": "minOutA",
                            "type": "uint256"
                        },
                        {
                            "internalType": "address",
                            "name": "routerB",
                            "type": "address"
                        },
                        {
                            "internalType": "bool",
                            "name": "isV3",
                            "type": "bool"
                        },
                        {
                            "internalType": "uint24",
                            "name": "v3Fee",
                            "type": "uint24"
                        },
                        {
                            "internalType": "address",
                            "name": "tokenOutB",
                            "type": "address"
                        },
                        {
                            "internalType": "uint256",
                            "name": "minOutB",
                            "type": "uint256"
                        },
                        {
                            "internalType": "uint256",
                            "name": "minProfit",
                            "type": "uint256"
                        },
                        {
                            "internalType": "uint256",
                            "name": "deadline",
                            "type": "uint256"
                        }
                    ],
                    "internalType": "struct FlashArb.ArbParams",
                    "name": "arb",
                    "type": "tuple"
                }
            ],
            "name": "initiateFlashArb",
            "outputs": [],
            "stateMutability": "nonpayable",
            "type": "function"
        },
        {
            "inputs": [],
            "name": "owner",
            "outputs": [
                {
                    "internalType": "address",
                    "name": "",
                    "type": "address"
                }
            ],
            "stateMutability": "view",
            "type": "function"
        },
        {
            "inputs": [],
            "name": "renounceOwnership",
            "outputs": [],
            "stateMutability": "nonpayable",
            "type": "function"
        },
        {
            "inputs": [
                {
                    "internalType": "address",
                    "name": "token",
                    "type": "address"
                },
                {
                    "internalType": "uint256",
                    "name": "amount",
                    "type": "uint256"
                },
                {
                    "internalType": "address",
                    "name": "to",
                    "type": "address"
                }
            ],
            "name": "rescue",
            "outputs": [],
            "stateMutability": "nonpayable",
            "type": "function"
        },
        {
            "inputs": [
                {
                    "internalType": "address",
                    "name": "newOwner",
                    "type": "address"
                }
            ],
            "name": "transferOwnership",
            "outputs": [],
            "stateMutability": "nonpayable",
            "type": "function"
        },
        {
            "inputs": [],
            "name": "weth",
            "outputs": [
                {
                    "internalType": "address",
                    "name": "",
                    "type": "address"
                }
            ],
            "stateMutability": "view",
            "type": "function"
        }
    ],
    "bytecode": "0x60c0346200016857601f6200142c38819003918201601f19168301916001600160401b038311848410176200016d5780849260609460405283398101031262000168576200004d8162000183565b60406200005d6020840162000183565b926001600160a01b0391829162000075910162000183565b169081156200014f57600080546001600160a01b03198116841782556040519391908316907f8be0079c531659141344cd1fd0a4f28419497f9722a3daafe3b4186f6b6457e09080a3600180558083161515908162000142575b501562000114575060805260a0526040516112939081620001998239608051818181610121015281816102d7015281816106600152610a4d015260a051816105c60152f35b62461bcd60e51b81526020600482015260096024820152683d32b9379030b2323960b91b6044820152606490fd5b90508316151538620000cf565b604051631e4fbdf760e01b815260006004820152602490fd5b600080fd5b634e487b7160e01b600052604160045260246000fd5b51906001600160a01b0382168203620001685756fe608080604052600436101561001357600080fd5b600090813560e01c9081631b11d0ff146105f5575080633fc8cef3146105b05780634879a28f1461021e578063715018a6146101c45780638671d23b146101775780638da5cb5b14610150578063a03e4bc31461010b5763f2fde38b1461007957600080fd5b3461010857602036600319011261010857610092610e98565b61009a6111c9565b6001600160a01b039081169081156100ef57600054826bffffffffffffffffffffffff60a01b821617600055167f8be0079c531659141344cd1fd0a4f28419497f9722a3daafe3b4186f6b6457e0600080a380f35b604051631e4fbdf760e01b815260048101849052602490fd5b80fd5b50346101085780600319360112610108576040517f00000000000000000000000000000000000000000000000000000000000000006001600160a01b03168152602090f35b5034610108578060031936011261010857546040516001600160a01b039091168152602090f35b503461010857606036600319011261010857610191610e98565b6001600160a01b039060443582811681036101bf576101bc926101b26111c9565b602435921661118b565b80f35b600080fd5b50346101085780600319360112610108576101dd6111c9565b600080546001600160a01b0319811682556001600160a01b03167f8be0079c531659141344cd1fd0a4f28419497f9722a3daafe3b4186f6b6457e08280a380f35b5034610108576003196060368201126104eb57610239610e98565b6024906044928335936001600160401b03928386116105ac57856004019286360361014080928201126105a85761026e6111c9565b60019460026001541461059657600260015561012489013580421161056b57888a0193600261029d868561105f565b90501061053a576102ae858461105f565b15610527576001600160a01b0390358181169c9197908d9003610523578716809c036104ef57867f000000000000000000000000000000000000000000000000000000000000000016988d6040519660209889808a01528a6103146101808b0199610eae565b1660408a01523590602219018112156104eb578301908d60048301359201968d83116104eb578260051b360388136104eb57918086959492938a99989760608b0152526101a0880196925b8a8282106104bf575050505050808961010492013560808701528861038660648301610eae565b1660a087015261039860848201610f10565b151560c087015262ffffff6103af60a48301610f1d565b1660e087015260c4986103c460c48301610eae565b1661010087015260e481013561012087015201359084015261016083015203936103f6601f1995868101845283610ec2565b853b156104bb5797939189959391604051998a966310ac2ddf60e21b88523060048901528a88015289359087015260a060648701528051928360a4880152875b8481106104a2575050505060c4848093601f848985819786010152856084850152011681010301925af1801561049757610473575b836001805580f35b8211610485575060405238808061046b565b634e487b7160e01b8352604160045282fd5b6040513d86823e3d90fd5b8281018401518c82018301528c98508b97508301610436565b8980fd5b84995083959697988d6104d58394969597610eae565b168152019801910191889796959493919261035f565b5080fd5b60405162461bcd60e51b815260206004820152600e818d01526d0e0c2e8d08240dad2e6dac2e8c6d60931b818a0152606490fd5b8d80fd5b634e487b7160e01b8d5260326004528a8dfd5b60405162461bcd60e51b815260206004820152600b818c01526a1c185d1a10481cda1bdc9d60aa1b81890152606490fd5b60405162461bcd60e51b8152602060048201526005818b0152647374616c6560d81b81880152606490fd5b604051633ee5aeb560e01b8152600490fd5b8880fd5b8680fd5b50346101085780600319360112610108576040517f00000000000000000000000000000000000000000000000000000000000000006001600160a01b03168152602090f35b82346101085760a03660031901126101085761060f610e98565b6064356001600160a01b038116036104eb57608435916001600160401b03831161010857366023840112156101085782600401356001600160401b0381116104eb578301933660248601116104eb577f00000000000000000000000000000000000000000000000000000000000000006001600160a01b03163303610e6a57506020838503126101085760248301356001600160401b0381116104eb576101409384828201870312610e66576040519485018581106001600160401b03821117610e52576040526106e4602483830101610eae565b8552604482820101356001600160401b038111610e4e576024870160438285850101011215610e4e5760248184840101013561071f81610ef9565b9161072d6040519384610ec2565b818352602460208401990160448360051b8388880101010111610e4a576044818686010101985b60448360051b838888010101018a10610e2c5750505060208601528181016064810135604087015261014492919061078e90608401610eae565b60608701526107a160a483830101610f10565b60808701526107b460c483830101610f1d565b60a08701526107c760e483830101610eae565b60c08701520161010481013560e0860152610124810135610100860152013561012084018190524211610dfd57825161081190602435906001600160a01b03908116908516611094565b6108558160018060a01b038551166040860151906020870151918361012089015193604051968795869485936338ed173960e01b8552309160243560048701610fa6565b03925af1908115610b68578291610de3575b50805180600019810111610d855790610884916000190190611012565b51608084015115610c6157602084015180519081600019810111610c4d576108d79183916001600160a01b03916108c19160001990910190611012565b5160608801516001600160a01b03169116611094565b60018060a01b0360608501511690602085015180519081600019810111610c39576001600160a01b03916109119160001990910190611012565b51169060018060a01b0360c0870151169062ffffff60a0880151166101208801519060e08901519360405195866101008101106001600160401b0361010089011117610c255761010087016040908152908752602080880192835281880193845230606089019081526080890195865260a0890196875260c0890197885260e089018b8152925163414bf38960e01b815298516001600160a01b0390811660048b01529351841660248a0152935162ffffff16604489015292518216606488015292516084870152925160a4860152925160c4850152511660e48301529091829061010490829086905af1908115610b68578291610bf3575b50925b60c08101516001600160a01b03848116911603610bb857610a41610100610a3860443560243561103c565b9201518261103c565b8410610b8757610a7b817f00000000000000000000000000000000000000000000000000000000000000006001600160a01b03861661118b565b8303928311610b73576040516370a0823160e01b81523060048201526020816024816001600160a01b0387165afa908115610b68578291610b35575b5091606091837fe1980d8c05617ebe0331bab77b170af11f37d477bbbc3e732a7477cf887932cd94610b14575b50506040805160243581526020810195909552604435908501526001600160a01b031692a2602060405160018152f35b9054610b2e91906001600160a01b0390811690841661118b565b8480610ae4565b90506020813d602011610b60575b81610b5060209383610ec2565b810103126104eb57516060610ab7565b3d9150610b43565b6040513d84823e3d90fd5b634e487b7160e01b81526011600452602490fd5b60405162461bcd60e51b81526020600482015260096024820152681b9bc81c1c9bd99a5d60ba1b6044820152606490fd5b60405162461bcd60e51b8152602060048201526013602482015272199a5b985b081b5d5cdd08189948185cdcd95d606a1b6044820152606490fd5b90506020813d602011610c1d575b81610c0e60209383610ec2565b810103126104eb575184610a0a565b3d9150610c01565b634e487b7160e01b89526041600452602489fd5b634e487b7160e01b85526011600452602485fd5b634e487b7160e01b84526011600452602484fd5b602084015180519081600019810111610c4d57610c939183916001600160a01b03916108c19160001990910190611012565b604051908160608101106001600160401b03606084011117610dcf5760608201604052600282526040366020840137602085015180516000198101908111610c39576001600160a01b0391610ce89190611012565b5116825115610dbb57602083015260018060a01b0360c086015116825160011015610dbb57908391604084015260018060a01b0360608701511660e0870151938361012089015195610d52604051978896879586946338ed173960e01b8652309260048701610fa6565b03925af1908115610b68578291610d99575b508051600019810191908211610d855790610d7e91611012565b5192610a0d565b634e487b7160e01b83526011600452602483fd5b610db591503d8084833e610dad8183610ec2565b810190610f2d565b84610d64565b634e487b7160e01b84526032600452602484fd5b634e487b7160e01b83526041600452602483fd5b610df791503d8084833e610dad8183610ec2565b84610867565b60405162461bcd60e51b8152602060048201526007602482015266195e1c1a5c995960ca1b6044820152606490fd5b90602080604493610e3c8d610eae565b8152019a0199909150610754565b8580fd5b8380fd5b634e487b7160e01b84526041600452602484fd5b8280fd5b62461bcd60e51b81526020600482015260096024820152681bdb9b1e481c1bdbdb60ba1b6044820152606490fd5b600435906001600160a01b03821682036101bf57565b35906001600160a01b03821682036101bf57565b90601f801991011681019081106001600160401b03821117610ee357604052565b634e487b7160e01b600052604160045260246000fd5b6001600160401b038111610ee35760051b60200190565b359081151582036101bf57565b359062ffffff821682036101bf57565b60209081818403126101bf578051906001600160401b0382116101bf57019180601f840112156101bf578251610f6281610ef9565b93610f706040519586610ec2565b818552838086019260051b8201019283116101bf578301905b828210610f97575050505090565b81518152908301908301610f89565b9291909594939560a08401908452602091602085015260a060408501528251809152602060c0850193019160005b828110610ff55750505050906080919460018060a01b031660608201520152565b83516001600160a01b031685529381019392810192600101610fd4565b80518210156110265760209160051b010190565b634e487b7160e01b600052603260045260246000fd5b9190820180921161104957565b634e487b7160e01b600052601160045260246000fd5b903590601e19813603018212156101bf57018035906001600160401b0382116101bf57602001918160051b360383136101bf57565b60405163095ea7b360e01b602082018181526001600160a01b0385166024840152604480840196909652948252949390926110d0606485610ec2565b60206000809386519082875af182513d82611166575b5050156110f6575b505050509050565b60405160208101969096526001600160a01b031660248601526044808601829052855260808501906001600160401b038211868310176111525750611148939461114391604052826111f5565b6111f5565b80388080806110ee565b634e487b7160e01b81526041600452602490fd5b90915061118357506001600160a01b0383163b15155b38806110e6565b60011461117c565b60405163a9059cbb60e01b60208201526001600160a01b039290921660248301526044808301939093529181526111c791611143606483610ec2565b565b6000546001600160a01b031633036111dd57565b60405163118cdaa760e01b8152336004820152602490fd5b906000602091828151910182855af115611251576000513d61124857506001600160a01b0381163b155b6112265750565b604051635274afe760e01b81526001600160a01b039091166004820152602490fd5b6001141561121f565b6040513d6000823e3d90fdfea2646970667358221220a3cb451a3fe665e94aa4e5aeb805f30ed983d4baa9b596d74e953a2db605150e64736f6c63430008180033",
    "linkReferences": {},
    "deployedLinkReferences": {}
}